:020000040800F2
:10000000F8DB0120DD010008C32C000845260008AC
:10001000C12C000889040008E53200080000000037
:10002000000000000000000000000000312D00086A
:10003000C905000800000000E72C0008332D000867
:10004000F7010008F7010008F7010008F7010008B0
:10005000F7010008F7010008F7010008F7010008A0
:10006000F7010008F7010008F7010008F701000890
:10007000F7010008F7010008F7010008F701000880
:10008000F7010008F701000849030008F70100081C
:10009000F7010008F7010008F7010008F701000860
:1000A000F7010008F7010008F7010008F701000850
:1000B000F7010008F7010008F7010008F701000840
:1000C000F7010008F7010008F7010008F701000830
:1000D000F7010008D9320008F7010008F70100080D
:1000E000CD050008F7010008F7010008F701000836
:1000F000F7010008F7010008F7010008F701000800
:10010000F7010008F7010008F7010008F7010008EF
:10011000F7010008F7010008F7010008F7010008DF
:1001200001050008F70100080D050008F7010008A7
:10013000F7010008F7010008F7010008F7010008BF
:10014000F7010008F7010008F7010008F7010008AF
:10015000F7010008F701000819050008F701000879
:10016000F7010008F7010008F7010008F70100088F
:10017000F7010008F7010008F7010008000000007F
:10018000F7010008F7010008F7010008F70100086F
:10019000F7010008F7010008F7010008F70100085F
:1001A000F7010008F7010008F7010008F70100084F
:1001B000F7010008F7010008F7010008F70100083F
:1001C000F7010008F7010008DFF80CD000F068F82C
:1001D0000048004709330008F8DB01200648804743
:1001E00006480047FEE7FEE7FEE7FEE7FEE7FEE71C
:1001F000FEE7FEE7FEE7FEE7F92D0008C90100086B
:100200002DE9F05F0546002092469B46884606464B
:10021000814640241BE0284641464746224600F0DE
:100220002FF853465A46C01A914110D3114618462A
:10023000224600F016F82D1A67EB01084F462246B9
:100240000120002100F00DF817EB00094E41201E9F
:10025000A4F10104DFDC484631462A464346BDE8A6
:10026000F09F202A04DB203A00FA02F100207047B8
:100270009140C2F1200320FA03F3194390407047E4
:10028000202A04DB203A21FA02F00021704721FAEB
:1002900002F3D040C2F12002914008431946704752
:1002A000064C074D06E0E06840F0010394E80700C3
:1002B00098471034AC42F6D3FFF78AFF00350008A8
:1002C0002035000810B50146806B026C12F0500F0B
:1002D00005D0806BC26C0846BDE810401047016C29
:1002E00041F40071016401688A6812F0405F17D11F
:1002F0008269AAB9CA6A12F4700F02D08A685205DC
:100300000ED44A6822F020024A60016C21F4807108
:100310000164016CC90403D4016C41F00101016462
:1003200000F01EFA10BD10B5806B40210164416CD5
:1003300041F00401416400F046FC10BD10B5806B33
:1003400000F040FC10BD0000014800F03DBC000082
:100350002000002049496FF0706210B5D1F80433D5
:1003600023F44033C1F80433D1F804334468234301
:10037000C1F8043301684B6823F480734B60016853
:1003800003694C6844EA03234B6001684B6823F01F
:1003900040734B60016884684B6823434B6001687D
:1003A0008B6823F400638B600168C4688B68234307
:1003B0008B60816AD14201688A6822F070628A602B
:1003C00001680DD0836A8A681A438A6001688A6866
:1003D00022F040528A600168C36A8A681A4302E0C8
:1003E0008A6822F040528A6001688A6822F002021C
:1003F0008A60016882698B6843EA42028A60016A06
:100400000029016811D01E4A4B6843F400634B6019
:1004100001684B6823F460434B600168446A4B6891
:1004200002EB443213434B6003E04A6822F400625B
:100430004A600168134BCA6A22F47002CA620168FA
:10044000848BCA6A03EB04531A43CA6201688A6840
:1004500022F400728A600168026B8B6843EA4222D0
:100460008A6001688A6822F480628A600168406953
:100470008A6842EA8020886010BD000000200140A8
:1004800000E0FFFF0000F0FFFEE70000F0B5BFF363
:100490004F8FBFF36F8F19490020174B0860196801
:1004A00041F400311960BFF34F8FBFF36F8F1249D2
:1004B00070310860BFF34F8F081F104D43F6FF7473
:1004C00010350068C0F34E31C0F3C90204EA41168A
:1004D000104600BF46EA80772F60401EFAD2491EC0
:1004E000F4D2BFF34F8F186840F480301860BFF328
:1004F0004F8FBFF36F8FF0BD14ED00E050EF00E0C1
:10050000014800F019BD0000D4D60120014800F0D8
:1005100013BD000034D70120014800F00DBD0000DC
:1005200094D7012001681823CAB2103AB2FBF3F243
:10053000054B6FF30901032A9B5CC36500D9091DB4
:100540008165084670470000E034000810B58369F3
:100550004FF0C074826A0146002053B1B3F5005FCA
:1005600015D072B1012A0CD0022A0AD0032A09D16F
:1005700004E01AB1012A06D0022A03D1C96AC901CE
:1005800000D5012010BDC96AA142FAD010BD002AD1
:10059000F7D0012AF2D0022AF3D0032AF3D010BDFB
:1005A00030B50468256825F48025256004686360FB
:1005B0008368402B036803D099600068C26030BD37
:1005C0009A600068C16030BD704700004FF4004081
:1005D00010B500F045FE0549EF22054800F01CFC6F
:1005E000BDE810400348022100F037BF240100207D
:1005F000200000200020024070470000F8B50025D0
:10060000009590F83C20012A18D0012280F83C2067
:100610000A6807234E4C0668092A1AD90A3A02EBDF
:100620004207F268BB409A43F2600E680268A64235
:1006300006D10B7AD66846EA036308E00220F8BDCB
:100640000A3E8B68D76806EB4606B3403B43D3604F
:100650000EE002EB42073269BB409A433261036805
:100660000E788A681F6906EB4606B2403A431A6163
:100670004A681F23072A13D20668521E02EB82071C
:10068000726BBB409A43726303680E790A88761EC8
:100690005F6B92B206EB8606B2403A435A6327E09C
:1006A00006680D2A12D2D21F02EB8207326BBB40C2
:1006B0009A43326302680E790B88F61F176B9BB260
:1006C00006EB8606B3403B43136311E00D3A02EBA1
:1006D0008207F26ABB409A43F26202680E790B8885
:1006E0000D3ED76A9BB206EB8606B3403B43D3620E
:1006F000184A0368934208D10B68122B05D1D2F82F
:10070000043343F48003C2F80433036893421AD1DC
:100710000B68A34201D0112B15D1D2F8043343F456
:100720000003C2F804330968A1420CD10A490B4AFC
:100730000968B1FBF2F101EB8101490000E0491EBB
:1007400000910029FBD180F83C500020F8BD00004A
:1007500012000010002001401C00002040420F0049
:100760002DE9F84F00684FF00004FD49884234D16C
:10077000FC4EFD4DDFF8F483FD4FF068DFF8F4B375
:10078000DFF8F493B0F5FA7F7DDAFC48891500F0C4
:100790005FFE012823D14102F84800F059FE0128EC
:1007A0001DD13088D8B101225D460821584600F09D
:1007B00058FE4FF47A74EC49F0222346F039A1F147
:1007C000700001F0E3FE0028F5D100222846082140
:1007D00000F047FE3088401E3080BDE8F88FE748C3
:1007E0004FF4807100F034FEDFF87CA3AAF1F00A28
:1007F00030B9E2484FF4007100F02AFE012809D018
:10080000DFF878B34FF48071584600F021FE0028DD
:1008100073D079E0D3484546D349C846C068C0EB99
:10082000001001EB800605EB800307EB800209EB6B
:10083000800100BF0AEB84001AF824C006F804C047
:1008400090F801C003F804C090F802C002F804C098
:10085000C0780855641C3C2CECDB0122584608216A
:1008600000F0FFFDDFF8189301224021484600F018
:10087000F8FD01225846114600F0F3FDC14E012259
:100880008021304600E0CBE000F0EBFDB54CE068A5
:10089000C0EB0011B44800EB810002F0D7FAE06829
:1008A000C0EB001005EB800002F0D0FAE068C0EB6E
:1008B000001007EB800002F0C9FAE068C0EB0010FE
:1008C00008EB800002F0C2FA00225846082100F02E
:1008D000C8FD00224846402100F0C3FD00225846D2
:1008E000012100F0BEFD00223046802100F0B9FD5C
:1008F000E068401CE06070E7FFE74FF40071584685
:1009000000F0A6FD002868D04FF48071584600F032
:100910009FFD0128EFD14102584600F099FD0028C3
:10092000E9D1F068D646C446BB468246C846C0EB0D
:10093000001005EB80060CEB800307EB800209EB4F
:10094000800100BF0EEB84001EF8247037554778F5
:100950001F5587781755C0780855641C3C2CF1DB6F
:10096000CAEB0A165F460024C14605EB860B4FF022
:10097000140E0CEB860A234607EB8608224609EB89
:1009800086062146204600BF0EEB0005401C1928B4
:100990001BF8057018F805C03C441AF80570755D21
:1009A00062443B442944EFDB142094FBF0F493FBB6
:1009B000F0F392FBF0F291FBF0F0E11811440844DF
:1009C0000122C1174FF47A7300EB917069468010D1
:1009D00000906D4801F0DAFDFFE6F0684246D0462F
:1009E000C0EB001105EB810302EB810207EB8107ED
:1009F00009EB810518F824C008EB840103F804C052
:100A000091F801C002F804C091F802C007F804C0D0
:100A1000C9782955641C3C2CECDB401CF060DCE6FA
:100A20000020F06070685949C6E90110282000F0E4
:100A300099FD00225C460221584600F012FDDFF8C5
:100A400044A1A34610E001225846082100F009FD08
:100A50004FF6FD742046401EFDD200225846082164
:100A600000F0FFFC641EFDD24021504600F0F0FC77
:100A70000028E8D1414C4FF48071204600F0E8FC9A
:100A8000002804D16115204600F0E2FCE8B38CE0B8
:100A900001225846082100F0E4FC4FF47A74F06813
:100AA0003C222346C0EB001005EB8001364801F0E4
:100AB0006DFD0028F3D100225846082100F0D1FC3A
:100AC0006220401EFDD22E480122402100F0C9FCC8
:100AD000F0683C222346C0EB00112B4808EB810153
:100AE00001F054FD0028F3D125480022402100F0F8
:100AF000B8FC6220401EFDD201225846114600F08B
:100B0000B0FCF068C0EB001000E047E03C22234658
:100B100007EB80011C4801F039FD0028F1D10022CB
:100B20005846012100F09DFC6220401EFDD20122AA
:100B30005046802100F095FC4C46F0683C224FF472
:100B40007A73C0EB001004EB80010F4801F01EFD2A
:100B50000028F2D100225046802100F082FC17E0EC
:100B600000220140000000201402002044770020F1
:100B700074EC002000200240A46101200004024027
:100B8000001C024000180240B40000200080010850
:100B9000F068401CF0607068001D7060F068B0F58F
:100BA000FA7F7FF775AF0020F0600020F060BDE8AD
:100BB000F84F02490222024801F0A0BC02000020C6
:100BC000B40000207047704770B5044600680168A3
:100BD0004268C1F34001C2F3401251B34AB3216CE1
:100BE000C90603D4216C41F400712164816811F0BD
:100BF000405F17D1A169A9B9C16A11F4700F02D081
:100C0000816849050ED4416821F020014160206CC3
:100C100020F480702064206CC00403D4206C40F069
:100C2000010020642046FFF79BFD21686FF0120051
:100C30000860206801684268C1F38001C2F3C012F5
:100C400089B382B3216CC90603D4216C41F40051ED
:100C50002164816811F4401F1ED1816B11F4401F83
:100C600002D08168490517D44168490514D48168C8
:100C700011F0405F10D1A16971B9416821F0800184
:100C80004160206C20F480502064206CC00503D4A7
:100C9000206C40F0010020642046FFF7ADFC216885
:100CA0006FF00C00086020680168436811F0010FC4
:100CB000C3F380110ED069B10068C0070AD0206C60
:100CC00040F480302064204600F046F821686FF040
:100CD00001000860206801684268C1F340110029E2
:100CE000C2F380620DD0002A0BD0616C6FF020053A
:100CF00041F00201616405602046FFF764FF20684F
:100D0000056070BD70B504004FF0000503D0206C85
:100D1000002610B107E0012070BD6664204684F80B
:100D20003C6000F01BF8206CC00610D4206C20F44E
:100D3000885040F0020020642046FFF70BFB6664F9
:100D4000206C20F0020040F00100206400E001254A
:100D500084F83C60284670BD7047000070B521499A
:100D60000646006886B088423AD11F48016841F4BF
:100D700080610160006803240025694600F48060FA
:100D800005904FF4F8608DE83100184800F074FACF
:100D9000012069468DE83100154800F06DFA154CC8
:100DA0001548810520600215C4E901154812C4E9FF
:100DB00003526561A561C4E907502046656200F0F1
:100DC0008BF918B183210DA002F08DFA0022B463D3
:100DD00012201146A66300F0DBFB122000F0CDFBD1
:100DE00006B070BD002201404438024000140240A9
:100DF00000000240D4D60120106402402E2E2F5352
:100E000072632F73746D3332663778785F68616C04
:100E10005F6D73702E630000F8B513460A4600211B
:100E20000446009190F83C00012807D0012084F886
:100E30003C0020688568ED0702D011E00220F8BD73
:100E400086682E4D46F0010686602D480068B0FB8E
:100E5000F5F000EB400000E0401E00900028FBD1C0
:100E600020688568ED0746D0256C40F20166B543E1
:100E700045F4807525644068400505D5206C20F454
:100E8000005040F480502064206CC00404D5606C95
:100E900020F00600606400E061646FF0220084F8D6
:100EA0003C10A56B1749E963A56B17492964A56B2D
:100EB0001649E964216808602068416841F0806152
:100EC00041602068816841F4807181602168A06B75
:100ED0004C3100F073F90E49D1F80403C0062068C4
:100EE00001D0884207D1816811F0405F03D1816849
:100EF00041F0804181600020F8BD000040420F00B9
:100F00001C000020C50200083D030008270300085C
:100F10000020014090F83510022903D0802141655E
:100F200001207047052180F835100068016821F024
:100F300001010160002070472DE9F84304464FF09D
:100F40000009644B0820CDF800904FF41652A56DAF
:100F500094F85C101B682E68B3FBF2F700FA01F1FD
:100F600031420FD021680A6852070BD50A6822F077
:100F700004020A6094F85C108840A860606D40F03C
:100F80000100606594F85C104FF0010808FA01F068
:100F9000304208D021684969090604D5A860606D0F
:100FA00040F00200606594F85C10042088403042F4
:100FB00008D021680968890704D5A860606D40F0F1
:100FC0000400606594F85C1010208840304218D00E
:100FD00021680968090714D5A860206801684903D9
:100FE00004D50068000308D5A16C07E00168C905B5
:100FF00003D4016821F008010160216C09B1204689
:10100000884794F85C1020208840304231D0216815
:101010000968C9062DD5A86094F835000528206810
:10102000016806D0490347D5006800031DD4616CF0
:101030001CE021F0160101602068416921F0800167
:101040004161206C08B9A06C20B12068016821F0D2
:101050000801016094F85C303F229A40AA6084F84D
:10106000349084F83580216D1FE0E16B09B1204692
:101070008847606D00282BD0606DC00714D0052014
:1010800084F835002068016821F0010101600098B2
:10109000401C0090B84203D820680068C007F6D111
:1010A00084F8349084F83580E16C002910D001B0C8
:1010B0002046BDE8F04308470168C905D5D4036858
:1010C00023F01003036084F8349084F83580CCE773
:1010D000BDE8F8831C0000202DE9F047044600F02D
:1010E000C5F9054664B14FF0000984F83490022137
:1010F00084F835102068016821F0010101600EE0DC
:101100000120BDE8F08700BF00F0B0F9401B0528C2
:1011100005D920216165032084F83500F1E72068B6
:101120000068C007F0D1D4E90020D4E90251D4E925
:10113000043C284304F1180519430843116895E855
:10114000E00140EA0C001C4B2843194040EA06002D
:1011500040EA0700B8F1040F40EA010003D1D4E9E6
:101160000B1319430843106020680126656A406923
:10117000042D20F0070045EA00050CD1D4E90A014E
:10118000054341B12046FFF7E1F920B140206065F9
:1011900084F83560B4E7206845612046FFF7C2F95E
:1011A00094F85C303F229A408260C4F8549084F8EE
:1011B00035600020A5E700003F8010F02DE9F041E8
:1011C000044690F8340000250128A66D0ED094F84E
:1011D00035C00127002084F83470BCF1010F07D01E
:1011E000022584F834002846BDE8F0810220FBE7A0
:1011F000022784F8357060652046FFF7D1F994F82E
:101200005C103F208840B0602068016841F0160102
:1012100001602068416941F080014161206C20B18A
:101220002068016841F0080101602068016841F010
:1012300001010160D7E7000070B5044600F016F91F
:101240000546601C02D004480078044400F00EF902
:10125000401BA042FAD370BD100000207047000070
:10126000044910B50A68024202D00860FFF7F6FF91
:1012700010BD0000143C01402DE9F84FDFF89CE15F
:1012800000224FF001084FF0030B4FF00F0A00BF90
:101290000B6808FA02F42340A34271D14D68022D75
:1012A00001D0122D0FD1D5080E69570700EB850527
:1012B000A9462D6AFF0E0AFA07FCBE4025EA0C0576
:1012C0002E43C9F820600F79550006680BFA05FC1B
:1012D00007F0030726EA0C06AF40374307604E6865
:1012E000012E05D0022E03D0112E01D0122E0ED1C8
:1012F0008668CF6826EA0C06AF40374387604668A9
:101300000F79A643C7F30017974037434760C46877
:101310008E6824EA0C04AE402643C6604C68E400A4
:1013200075D53F4C256845F480452560246822F03A
:101330000306950704F4804400943A4C2D0F26448C
:10134000D6F80848DFF8E0C00AFA05F7604524EA55
:10135000070401D100272EE0344FB84201D1012704
:1013600029E0334FB84201D1022724E0314FB8427F
:1013700001D103271FE0304FB84202D104271AE001
:1013800045E02E4FB84201D1052714E02C4FB8425A
:1013900001D106270FE02B4FB84201D107270AE001
:1013A000294FB84201D1082705E0284FB84201D1A2
:1013B000092700E00A27AF4027437546C6F808789A
:1013C0004E68DEF80040F60324EA030400D51C430F
:1013D000124E2C60361D4D683468AD0324EA0304B8
:1013E00000D51C430D4F346008374D683C68ED0252
:1013F00024EA030400D51C43084D3C600C354E68BC
:101400002C68B60224EA030400D51C432C60521C4D
:10141000102AFFF43DAFBDE8F88F0000003C01400A
:101420004438024000300140000002400004024005
:1014300000080240000C024000100240001402406C
:1014400000180240001C024000200240002402401C
:101450000069084000D00120704742694A4042615B
:1014600070470AB1816170470904FBE70148806851
:101470007047000010000020024881680278114483
:101480008160704710000020032010B500F0A0F824
:10149000002000F005F800F023F8002010BD000047
:1014A00070B50D4D04464FF47A700C4A29781268D5
:1014B000B0FBF1F0B2FBF0F000F091FE48B9102C57
:1014C00007D200222146501E00F062F800206C6016
:1014D00070BD012070BD0000100000201C00002025
:1014E0001F4808B5016841F080510160006800F0B4
:1014F000805000901A48001D016841F4804101604D
:10150000006800F480400090032000F061F80022A1
:101510006FF00B00114600F03BF800226FF00A005C
:10152000114600F035F800226FF00900114600F076
:101530002FF80022501F114600F02AF80022101F39
:10154000114600F025F80022901E114600F020F808
:101550000022BDE80840501E114600F019B80000F6
:1015600040380240410900F01F028900012001F1CA
:10157000E0219040C1F880017047410900F01F024E
:101580008900012001F1E0219040C1F8000170477D
:101590000E4BF0B41B680D46C3F30223C3F10706DC
:1015A000042E00D90426191D072901D2002300E0CA
:1015B000DB1E012404FA06F19C40491E2940641EEA
:1015C000994014402143F0BC01F07CBB0CED00E0DD
:1015D000064900F0070210B54FF6FF040868044BF7
:1015E000204040EA02201843086010BD0CED00E0E6
:1015F0000000FA051848F8B5016841F08051016013
:101600000068164C00F080500090206840F4803054
:101610002060FFF72BFF4FF47A76054605E000BF08
:10162000FFF724FF401BB0420FD86068C003F7D516
:10163000206840F400302060FFF718FF054606E000
:10164000FFF714FF401BB04201D90320F8BD6068CA
:101650008003F5D50020F8BD4038024000700040FE
:10166000F8B50446FFF702FF07465CB194F8400066
:10167000012809D0012684F84060002594F8410033
:1016800020B10BE00120F8BD0220F8BD84F84050E5
:10169000204600F045F841F28830A06420686FF0E1
:1016A000FF03A168026803EB012322F4F8511943F8
:1016B0000160A06C002220213B460090204601F0F2
:1016C00013FB30BB2268D4E9077C94F804E0E1689E
:1016D00013683943104F4CEA0E6EDFF840C03B40B0
:1016E00041EA0E01194311602168D4E90527B4F8D5
:1016F00010E04B683A4303EA0C0343EA0E431A43F3
:101700004A6021680A6842F001020A60656484F850
:10171000416084F84050F8BD2FFFFF00FEF8E0FF65
:101720002DE9F043006887B01D49884235D11D4836
:10173000016841F0020101600068092701AA4FF029
:10174000040800F00200CDF800800224694600255C
:10175000CDE904700326144882E87000FFF78CFD81
:101760000A21DFF848904020CDE903618DE831007F
:1017700069464846FFF780FD01AACDF8008069461A
:10178000484682E8F000FFF777FD4FF46050694665
:101790008DE8F1000648FFF76FFD07B0BDE8F08364
:1017A000001000A03838024000100240000402403F
:1017B000000C02402DE9F84F04460078DFF824942D
:1017C0004FF000063746C0070ED0D9F8001021F4BC
:1017D0000001C9F80010D9F80010626B1143C9F874
:1017E0000010606B00B90126FE4D206884350003AF
:1017F0000ED5E16B286820F4401008432860E06BA8
:10180000B0F5801F01D010B102E0012600E00127F1
:1018100020684FF4800BC0020CD5216C286820F49E
:10182000400008432860206C584501D1012601E0A2
:1018300000B901272068C10100D50126800666D5C0
:10184000E8483830016841F0805101600068DFF8F5
:1018500098A300F080500090DAF8001041F48071F5
:10186000CAF80010FFF702FE804605E0FFF7FEFD14
:10187000A0EB080064287DD8DAF80000C005F5D593
:10188000DFF8608308F16808D8F8000010F44070B1
:101890002AD0218E01F44071814225D0D8F8001061
:1018A000D8F8002021F4407142F48032C8F80020BA
:1018B000D8F8002022F48032C8F80020C8F80010C0
:1018C000D8F80000C0070FD0FFF7D0FD824607E030
:1018D000FFF7CCFDA0EB0A0141F288308142CAD863
:1018E000D8F800008007F3D5206BC0F3012103294D
:1018F0007ED0D9F8001021F4F811C9F80010228E1A
:10190000D8F80010C2F30B021143C8F80010207879
:10191000C00607D5286820F0807028602868A16B71
:10192000084328602188AF488830490405D5626E95
:10193000016821F44031114301602188090405D573
:10194000A26E016821F44021114301602168C9039E
:1019500005D5E26E016821F4401111430160216850
:10196000890305D5226F016821F44001114301600C
:10197000217800E018E1490605D5626C016821F084
:101980000301114301602178090605D5A26C0168A5
:1019900021F00C01114301602188C90505D5E26CD5
:1019A000016821F03001114301602188890505D5C6
:1019B000226D016821F0C0011143016021884905B1
:1019C00005D5626D016821F44071114301602188E1
:1019D000090505D5A26D016821F44061114301603C
:1019E0002188C90407D5E26D016821F4405100E067
:1019F00041E0114301602188890405D5226E016808
:101A000021F44041114301602168490205D5A26FCC
:101A1000016821F080611143016021684FF0006A84
:101A2000890209D5E26F016821F00061114301606C
:101A3000E16F514500D1012721680A0700D5012730
:101A4000490305D5626F016821F0407111430160BF
:101A50002168090206D5D4F88020016821F0805160
:101A600011430160DFF88491012E0ED02068B0F19F
:101A7000007F0AD08FE05E4AD9F80030104023F48E
:101A8000F8120243C9F8002039E7D9F800004E46A1
:101A900020F08060C9F80000FFF7E8FC804605E010
:101AA000FFF7E4FCA0EB080064287DD83068000153
:101AB000F6D421784B487C30C90712D0616B81B9CC
:101AC000237A62680168D0F800C09201C1F3014135
:101AD00042EA0142CCF3036142EA016141EA037147
:101AE000016021680A0303D5E26BB2F5801F04D0C0
:101AF000C9021AD5216C594517D16368016894F859
:101B00000CC002689B01C1F3014143EA0141C2F3E9
:101B1000027241EA0C6141EA027101602968626A5D
:101B200021F01F01521E114329602168C90110D5FF
:101B3000238A62680168D0F800C09201C1F3036192
:101B400042EA034242EA0162CCF3027142EA0171C5
:101B50000160216889010CD56168228A237B94F891
:101B600008C0890141EA024141EA036141EA0C717E
:101B700001603168B04641F080613160FFF776FC6A
:101B8000064604E0FFF772FC801B64280CD8D8F8E6
:101B900000000001F6D56FB3D9F800004E4620F0E2
:101BA0008050C9F8000000E079E0FFF75FFC0746CD
:101BB00005E000BFFFF75AFCC01B64286FD83068EF
:101BC000C0438000F6D50748216880300A0301D55C
:101BD000E26B1AB1C90225D5216C19BB6369016892
:101BE000277E08E0083802400070004000380240BC
:101BF000FFFCFF0F5AE00268C1F301419B0143EA79
:101C00000143C2F3027143EA076242EA01710160D3
:101C100029686FF0FF03A26A21F4F85103EB022256
:101C2000114329602168890212D5E16F51450FD116
:101C3000238C6269016807689201C1F3036142EA7B
:101C4000034242EA0162C7F3027142EA0171016094
:101C50002178090716D561690268D0F800C08B01A8
:101C6000277FC2F30362CCF3014143EA014141EA19
:101C7000026141EA077101602868E16A20F440309E
:101C800008432860306840F080503060FFF7EEFB7A
:101C9000044607E0FFF7EAFB001B642802D9032093
:101CA000BDE8F88F3068C0438000F3D40020F7E728
:101CB0002DE9F04705000F4663D0444E306800F030
:101CC0000F00B84209D2306820F00F00384330606E
:101CD000306800F00F00B84253D128683C4C8107AF
:101CE00012D5400703D5206840F4E05020602878E2
:101CF000000703D5206840F460402060A968206890
:101D000020F0F000084320602878C0072AD030492E
:101D100068680839012810D00968022810D089079E
:101D200000292EDA216821F0030101432160FFF729
:101D30009DFB804641F288390DE009688903EFE791
:101D40008901EDE7FFF792FBA0EB0801494502D9B5
:101D50000320BDE8F0876868216801F00C01B1EB51
:101D6000800FEFD1306800F00F00B8420BD9306817
:101D700020F00F0038433060306800F00F00B842A8
:101D800001D00120E5E72878400705D5E9682068FB
:101D900020F4E050084320602878000706D5286921
:101DA000216821F4604141EAC000206000F03CF865
:101DB0002168084AC1F30311515CC8400649086014
:101DC0000020FFF76DFB0020C3E70000003C02404D
:101DD00008380240E83400081C0000200148006870
:101DE000704700001C00002004490548096800688D
:101DF000044AC1F38221515CC84070470838024050
:101E00001C000020F83400080449054809680068EF
:101E1000044AC1F34231515CC8407047083802405F
:101E20001C000020F8340008154910B51548096851
:101E300011F00C0213D01449042A0FD0082A0ED135
:101E40000F4C241F2268236802F03F025B0207D573
:101E50002068C0F38810A0FB010106E0084610BD11
:101E60002168C1F38811A1FB00010023FEF7C8F926
:101E70002168C1F30141491C4900B0FBF1F010BDDC
:101E8000083802400024F40040787D012DE9F84F25
:101E900005004FF000076ED02878DFF81C93A9F1F9
:101EA000040AC007AAF104044CD0D9F8001048462F
:101EB000C1F38101012908D00068C0F38100022824
:101EC0000AD1DAF80000400206D52068800339D52F
:101ED00068680028DFD035E06868B0F5803F0BD037
:101EE00010B1B0F5A02F11D0206820F48030206010
:101EF000206820F4802002E0206840F480302060D8
:101F0000686890B1FFF7B2FA06460AE0206840F42C
:101F100080202060F0E700BFFFF7A8FA801B64284C
:101F200072D820688003F7D50CE0FFF79FFA0646C9
:101F300005E000BFFFF79AFA801B6428F0D82068FC
:101F40008003F7D42878800742D5D9F80010484696
:101F500011F00C0F08D00068C0F3810002280BD1EB
:101F6000DAF80000400207D42068800718D5E86836
:101F7000012800D114E01CE1E8680028206817D08F
:101F800040F001002060FFF771FA064605E000BF4F
:101F9000FFF76CFA801B0228C2D820688007F7D5AB
:101FA0002869216821F0F80141EAC00020600FE0B3
:101FB00020F001002060FFF759FA064605E000BF57
:101FC000FFF754FA801B02281ED820688007F7D438
:101FD0002878000729D5784869696C30002980463F
:101FE000016812D041F001010160FFF73FFA064697
:101FF00005E000BFFFF73AFA801B022804D8D8F8A2
:1020000000008007F6D510E089E021F001010160B1
:10201000FFF72CFA064604E0FFF728FA801B022897
:102020007DD8D8F800008007F6D4287840076BD513
:10203000DFF8848108F13808D8F80000C0000BD41C
:10204000D8F8001041F08051C8F80010D8F800000E
:10205000012700F08050009058480168C90512D44B
:102060000168834641F480710160FFF7FFF906467D
:1020700005E000BFFFF7FAF9801B64284FD8DBF8B2
:102080000000C005F6D54C4EA868683601280AD075
:1020900008B1052811D0306820F0010030603068A8
:1020A00020F0040002E0306840F001003060A868D1
:1020B000A0B1FFF7DBF983460CE0306840F0040084
:1020C0003060F0E7FFF7D2F9A0EB0B0141F2883066
:1020D000814266D830688007F4D50EE0FFF7C6F974
:1020E000834607E0FFF7C2F9A0EB0B0141F288300D
:1020F000814256D830688007F4D42FB1D8F8001048
:1021000021F08051C8F80010A869C8B3D9F80010B0
:10211000C1F3810102294CD00228206800E040E090
:1021200020F08070206003D0FFF7A0F905463BE067
:10213000FFF79CF9064604E0FFF798F9801B022898
:102140002FD820688001F7D4D5E90962D5E90701C5
:102150001B4B570895F82C20084303EB074343EA31
:102160008611084340EA026040F00050CAF80000BF
:10217000206840F080702060FFF778F9054606E09F
:1021800015E000BFFFF772F9401B022809D820684C
:102190008001F7D50BE000BFFFF768F9401B02286C
:1021A00002D90320BDE8F88F20688001F4D4002014
:1021B000F8E70120F6E70000083802400070004010
:1021C0000000FFFF04284FF0E020016903D021F058
:1021D00004010161704741F00401FAE77047401EB5
:1021E000B0F1807F10B501D3012010BD4FF0E02485
:1021F00060610F21601700F065FD0020A0610721DC
:10220000216110BD10B5FFF7E9FF10BD7047000058
:1022100070B501680446C8690A688B6810F00F0F32
:102220005CD003F0010502F490762E4369D0C60716
:1022300007D0D60505D501260E62E16E41F00101F9
:10224000E166810708D5D90706D0266802213162E8
:10225000E16E41F00401E166410708D5D90706D0D7
:10226000236804211962E16E41F00201E166010771
:102270000AD502F02001294306D0236808211962FB
:10228000E16E41F00801E166E16E002932D080067E
:1022900004D5900602D5204600F084FEE06E0007CB
:1022A00003D420688068400625D5204600F06CFEE7
:1022B0002068816849061AD5816821F04001816053
:1022C000606EA0B12F490165606EFEF723FE002805
:1022D00010D0606E016DBDE870400847830610D5D0
:1022E00093060ED52046BDE8704000F05BBE204648
:1022F000FFF78CFF70BD2046FFF788FF0020E066E7
:1023000070BD03062FD513062DD594F8690021283A
:10231000F6D1B4F8520020B1A068B0F5805F0AD0C1
:102320000BE0086820F0800008602068016841F038
:102330004001016070BD206960B1E06C411CE16446
:1023400021680078C1F82800B4F85200401EA4F8B3
:10235000520070BDE06C0088C0F308008862E06C39
:10236000801CE064F0E74006F3D55006F1D50B6819
:102370002022204623F040030B6084F8692000F0FF
:1023800060F970BD752F000810B5040003D094F8F3
:10239000690010B107E0012010BD002084F868003A
:1023A000204600F027F8242084F86900206801689E
:1023B00021F001010160204600F030FE0128EBD041
:1023C000606A10B1204600F051FD2068416821F498
:1023D000904141602068816821F02A018160206875
:1023E000016841F0010101602046BDE8104000F0A5
:1023F000A1BD00002DE9F04332490746006887B0CF
:1024000088425CD13048016841F0100101600068E9
:1024100000240726694600F01000059080200090F7
:1024200002252A48CDE90154CDE90346FEF724FFF1
:1024300028020090CDE9015425486946CDE90346BC
:10244000FEF71AFF234E4FF48069234A4FF00068CD
:1024500030463260C6E90184C6E903497461B4615B
:10246000F46134627462FEF737FE20B11BA040F2C3
:10247000391100F038FF204D40237E6605F1080039
:10248000B763154A80E818026C617832AC6128465F
:10249000EC612C626C62C5E90028FEF71DFE20B1DC
:1024A0000EA040F24B1100F01EFF00223D662520D9
:1024B0001146AF63FFF76CF82520FFF75EF807B011
:1024C000BDE8F0830010014044380240000402409F
:1024D0000000024034D70120406402402E2E2F53CA
:1024E00072632F73746D3332663778785F68616C0E
:1024F0005F6D73702E63000094D7012010B590F8C3
:102500006A30202B3FD1C9B1C2B190F86830012B9D
:1025100039D083680124416580F86840A0F85820CC
:10252000A0F85A20B3F5805F4FF0FF0108D04FF0BC
:102530007F0253B1B3F1805F0CD011E0012010BDD8
:10254000026922B940F2FF1101E0036933B9A0F832
:102550005C1005E0016909B13F21F8E7A0F85C20B3
:1025600000212222C16680F86A2080F86810016884
:102570008A6842F001028A600068016841F4907143
:102580000160002010BD022010BD70472DE9F84306
:10259000044690F869001F4616460D4620284ED185
:1025A000C5B1BEB194F86800012848D0012284F872
:1025B000682021214FF00008C4F86C8084F869106D
:1025C0005034FEF753FF268081466680503C4FF41E
:1025D000805619E00120BDE8F88300BFB4F852002E
:1025E000401EA4F8520000224B468021204600974E
:1025F00000F040FEA0B9A068B04201D1206988B1C6
:1026000015F8010B21688862B4F852000028E5D162
:1026100000224B4640212046009700F02BFE38B1A7
:102620000320D8E735F8020B2168C0F30800EAE779
:10263000202184F86910002084F86880CBE702200C
:10264000C9E77047FEE700007FB5204800241E4A16
:10265000012504266906C0E9002405611C4A0462BC
:10266000C0E90A24C0E906560563C0E902144461C2
:10267000FEF748FB00B1FEE714486946CDE9004685
:102680000294FDF7BBFF00B1FEE706206946CDE9E5
:1026900000050E48FDF7B2FF00B1FEE7022107205A
:1026A000CDE9000109486946FDF7A8FF00B1FEE742
:1026B00003210820CDE9000104486946FDF79EFF8B
:1026C000002800D0FEE77FBD00220140200000204E
:1026D0000100000F2DE9F04FFE4887B0016841F07E
:1026E00010010160016801F010010591016841F0DD
:1026F00040010160016801F040010591016841F06D
:1027000002010160016801F002010591016841F0D8
:1027100008010160016801F008010591016841F0BC
:1027200004010160016801F004010591016841F0B4
:1027300001010160016801F001010591016841F4A6
:1027400000710160016801F400710591016841F4B4
:1027500080710160016801F480710591016841F4A4
:1027600080610160016801F480610591016841F0B8
:1027700020010160016801F020010591016841F02C
:102780008001016000680122202100F08000059096
:10279000D148FEF766FED148002241F20F01FEF754
:1027A00060FECF4800220821FEF75BFECD480022E4
:1027B0004FF40151FEF755FECB4800228821FEF769
:1027C00050FE00244FF010080E21CDF800800225A5
:1027D000DFF81893CDE90154CDE903416946484635
:1027E000FEF74AFD08206946CDE9000448460294F8
:1027F000FEF742FD4FF4D0404FF00B0A02AA6946A3
:10280000CDE900050326B84882E85004FEF734FD00
:102810004FF683700294CDE900050C206946CDE99E
:1028200003604846FEF728FD4FF444706946CDE941
:10283000000401200290AE48FEF71EFD43F623403F
:102840000294CDE900050A206946CDE90360A84855
:10285000FEF712FD8020009008206946CDE9015462
:10286000CDE903409C48FEF707FD4FF4F850029471
:10287000CDE900050C206946CDE903609D48FEF7CF
:10288000FBFCA80300909C486946CDE901059B48E4
:10289000FEF7F2FC602000900D276946CDE9015457
:1028A0004846CDE90347FEF7E7FC48F233100294AF
:1028B000CDE900050C206946CDE903608A48FEF7A2
:1028C000DBFC4EF6FF7000900E206946CDE9015406
:1028D000CDE903408A48FEF7CFFCE8026946CDE91E
:1028E000000487480294FEF7C7FC4020009085480A
:1028F0006946CDE901047848FEF7BEFC4CF203704E
:102900000294CDE900050C206946CDE903607248C8
:10291000FEF7B2FC4FF4E0500294CDE900050A2026
:102920006946CDE903607548FEF7A6FCF0200090EB
:102930000A206946CDE90154CDE903406748FEF716
:102940009BFCF72000900E206946CDE90154CDE9AB
:1029500003406348FEF790FCE802009009206946B6
:10296000CDE90154CDE903405F48FEF785FC6802DC
:1029700000900A206946CDE90154CDE903405A4848
:10298000FEF77AFC2020009001206946CDE9010481
:1029900051480394FEF770FC08200090CDE90154E3
:1029A0004D486946CDE90347FEF766FC41F20F004A
:1029B000009001206946CDE9010448480394FEF7E0
:1029C0005BFC4FF4005B4B48CDE900B469460294D0
:1029D000FEF752FC4FF63F000294CDE900050C20B3
:1029E0006946CDE903604848FEF746FC4FF446408F
:1029F00000900E206946CDE90154CDE903403748E7
:102A0000FEF73AFC0820009001206946CDE9010458
:102A100033480394FEF730FC28020090CDE90154BE
:102A200031486946CDE90347FEF726FC2A48694646
:102A3000CDE900840294FEF71FFC0C204FF004093E
:102A4000CDF800906946CDE903602348CDE90154F3
:102A5000FEF712FC48F204006946CDE90004214863
:102A60000294FEF709FC4FF40150009001206946E2
:102A7000CDE901041B480394FEF7FEFB4FF4BC4074
:102A80000090CDE9015417486946CDE90347FEF7A8
:102A9000F3FBA80269468DE831001048FEF7ECFB15
:102AA000E801009001206946CDE90154CDE90340D9
:102AB0001248FEF7E1FB13486946CDF800B0CDE9B6
:102AC00001040648FEF7D8FBC0200294CDE90005BA
:102AD00008201BE030380240000C02400020024079
:102AE00000280240001C0240001802400010024072
:102AF00000040240000802400000111000000240E3
:102B0000002402400000121000140240CDE90360CE
:102B10004B486946FEF7B0FB0A20CDF800806946B5
:102B2000CDE903604748CDE90154FEF7A5FB0C2031
:102B30004FF02808CDF800806946CDE90360414890
:102B4000CDE90154FEF798FB8820009001206946EA
:102B5000CDE901043C480394FEF78EFB4020694612
:102B6000CDE90004012002903748FEF785FB0820DC
:102B70000294CDE900050C206946CDE90360304898
:102B8000FEF77AFB0A204FF0050BCDF800B069463E
:102B9000CDE903602A48CDE90154FEF76DFB3220F0
:102BA000694602AACDE90005254882E85004FEF7EF
:102BB00063FB25486946CDE900940294FEF75CFB6F
:102BC0008621224802AACDE90015694682E8500410
:102BD000FEF752FB50200090CDE901541B48694696
:102BE000CDE90347FEF748FB01A8F301009312214A
:102BF000012280E8460213486946FEF73DFB0A21A0
:102C0000CDF800801148CDE90361CDE90154694652
:102C1000FEF732FBB1030091CDE901540C4869463F
:102C2000CDE9034BFEF728FB002228201146FEF7D2
:102C3000AFFC2820FEF7A1FC07B0BDE8F08F000034
:102C400000080240001C0240001802400000024040
:102C5000000402400B48002110B50122084CFF235C
:102C6000C0E90221C0E904218161C1610162C0E9BA
:102C70000043FEF7F5FC002800D0FEE710BD000081
:102C8000001000A0680000200C48002110B50A4C7C
:102C90000C224FF4E1330460C0E90131C160C0E9A6
:102CA00004128161C16101624162FFF76DFB00287E
:102CB00000D0FEE710BD000000100140B40000206D
:102CC000FEE77047090700284FEA116106DA00F0B5
:102CD0000F0000F1E02080F8141D704700F1E020A3
:102CE00080F80014704770472DE9F0419846164669
:102CF0000F460446069D12E0681C10D02DB1FEF769
:102D0000B5FBA0EB0800A84209D9042084F84100D3
:102D1000606C40F0010060640120BDE8F081206833
:102D20008068384000D00120B042E5D10020F4E7AF
:102D3000704710B5FEF7A0FBBDE81040FFF762BA80
:102D40002B4830B5B3B0016841F080510160006894
:102D500000F0805032902748016841F44041016002
:102D6000006802241923299300F440403290012086
:102D70004FF4D87582050104CDE92742CDE92A54E4
:102D80002C94CDE9210121A8FFF780F800B1FEE7DE
:102D9000FEF730FC00B1FEE74FF480524FF4A05133
:102DA0000025CDE930122DAA0F20072182E831003D
:102DB0002DA8FEF77DFF00B1FEE7402011950090A1
:102DC0006846FEF7F7FC00B1FEE7FFF707F84FF49F
:102DD0007A71B0FBF1F0FFF702FA0420FFF7F2F985
:102DE0000022501E1146FEF7D3FB33B030BD000069
:102DF0004038024000700040104A30B51048146856
:102E000000210F4B44F470041460083305680D4A28
:102E10000D4C45F00105056019600368051D134060
:102E2000074A03600C322C600568E305034C25F467
:102E300080250560803C1160236030BD88ED00E096
:102E400000380240FFFFF6FE1030002470B54FF44A
:102E50007A74054604483C2223462946FFF796FB30
:102E60000028F7D170BD0000B400002090F82410B5
:102E7000C90706D00168836A4A6822F400321A43FF
:102E80004A6090F82410890706D50168C36A4A6829
:102E900022F480321A434A6090F82410490706D57C
:102EA0000168036B4A6822F480221A434A6090F852
:102EB0002410090706D50168436B4A6822F40042D2
:102EC0001A434A6090F82410C90606D50168836B3E
:102ED0008A6822F480521A438A6090F82410890686
:102EE00006D50168C36B8A6822F400521A438A60CF
:102EF00090F82410490611D50168036C4A6822F441
:102F000080121A434A60016CB1F5801F06D1016836
:102F1000436C4A6822F4C0021A434A6090F82410B5
:102F2000090606D50168826C486820F40020104329
:102F30004860704738B500250446C566FEF796FA26
:102F400003462068006800070BD56FF07E400090B4
:102F5000002220464FF4001100F08CF908B1032044
:102F600038BD202084F8690084F8685084F86A002D
:102F7000002038BD10B5806B0021A0F85A10A0F8D1
:102F80005210FFF743F910BD016820220B6823F4AB
:102F900090730B6001688B6823F001038B6080F8ED
:102FA0006A20704710B590F86A10B0F85C202229AA
:102FB000016805D0886940F008008861022010BDD2
:102FC0008368B3F5805F01D1036973B14B6A416DCA
:102FD00013404A1C42650B70B0F85A10491E090490
:102FE000090CA0F85A1008D016E04B6A416D134046
:102FF0000B80416D891C4165EEE7016820220B685A
:1030000023F490730B6001688B6823F001038B60DD
:1030100080F86A20FFF7B9FA002010BD2DE9F047CB
:1030200004468068874B884F2668D4E90415E26916
:103030000843D6F800C01021154300222843154646
:103040000CEA030C814B4CEA000CC6F800C04FF4AC
:1030500000492068D4F80CC0466826F4405646EA79
:103060000C0646602668D4F82080A069D6F808C00F
:1030700040EA08002CF4306C4CEA000CC6F808C09A
:103080002068B8420AD11B6813F0030352D0012B09
:103090007AD0022B76D0032B79D177E06C4EB042F8
:1030A0000AD11B6813F00C036AD0042B6CD0082BD8
:1030B00068D00C2B6BD169E0664EB0420AD11B6818
:1030C00013F030035CD0102B5ED0202B5AD0302B65
:1030D0005DD15BE0604EB0420AD11B6813F0C003C3
:1030E0004ED0402B50D0802B4CD0C02B4FD14DE038
:1030F0005A4EB0420DD11B6813F4407340D0B3F563
:10310000807F41D0B3F5007F3CD0B3F5407F3ED106
:103110003CE0534EB0420FD11B6813F4406309D01A
:10312000B3F5806F30D0B3F5006F2BD0B3F5406F9F
:103130002DD12BE001212AE04A4EB0420DD11B686F
:1031400013F440531CD0B3F5805F1DD0B3F5005F7E
:1031500018D0B3F5405F1AD118E0434EB04216D1F3
:103160001B6813F440430BD0B3F5804F0CD04B4594
:1031700008D0B3F5404F0AD108E005E002E0FFE7D0
:10318000002104E0022102E0042100E00821E669B8
:103190004E452AD109291FD2DFE801F00508141E87
:1031A000171E1E1E1A00FEF71FFE01E0FEF72CFE82
:1031B0000146D4F80400490001EB5001B1FBF0F0E6
:1031C00082B20AE029496068F6E7FEF72DFEEFE7D4
:1031D00060684FF48031EFE70125216822F00F008D
:1031E000C2F342021043C86028E0092925D2DFE873
:1031F00001F005080B24102424241C00FEF7F4FD24
:1032000009E0FEF701FE06E06168194A02EB51028F
:103210000EE0FEF709FE0146D4E9002001EB500163
:10322000B1FBF0F080B2D06008E0616809EB5102B8
:10323000B2FBF1F189B2C16000E001252846BDE88A
:10324000F0870000F369FFEF001001409038024062
:103250000044004000480040004C00400050004046
:103260000014014000780040007C00400048E80164
:103270000024F4002DE9F041984617460E46044616
:10328000069D1DE0681C1BD02DB1FEF7EFF8A0EBEA
:103290000800A84214D32168202000220B6823F4E0
:1032A000D0730B6021688B6823F001038B6084F876
:1032B000690084F86A00032084F86820BDE8F08182
:1032C0002068C06936EA000004D00020B842D9D096
:1032D0000020F3E70120F9E70148FEF799BF00005D
:1032E000B4000020FEE7FEE702E008C8121F08C194
:1032F000002AFAD170477047002001E001C1121F77
:10330000002AFBD17047000008B5FDF7BFF8FEF7B3
:10331000BBF8FFF715FD2820FEF724F9FFF7DAF9CF
:103320002820FEF71FF96648016841F4800101601A
:1033300000680022114600F4800000903820FEF75B
:1033400027F93820FEF719F900223A201146FEF736
:103350001FF93A20FEF711F9002246201146FEF728
:1033600017F94620FEF709F9FFF78EFCFFF76CF915
:10337000FFF770FC534C012202212046FEF771F842
:103380003220FDF759FF012220460821FEF769F897
:103390003220FDF751FF4C4E012240213046FEF70E
:1033A00060F83220FDF748FF012220461146FEF763
:1033B00058F83220FDF740FF444D01228021284675
:1033C000FEF74FF83220FDF737FFE7142046394665
:1033D000FEF73EF80028F9D0A14600224846022117
:1033E000FEF73FF86420FDF727FF00222046082162
:1033F000FEF737F8002230464021FEF732F864200D
:10340000FDF71AFF002220460121FEF72AF80022CC
:103410002C4680212846FEF724F82D4902222D480B
:10342000FFF76CF8A2462A4CDFF8ACB00025DFF8B5
:10343000AC80A61E4FF4FA7750464021FEF708F8FC
:1034400038B12078532802D16078732801D03088B1
:1034500078B925700022022148466570FEF701F810
:1034600028203780FEF77EF8FA20FDF7E5FEC6F843
:10347000048010215846FDF7EBFF28B12078522830
:1034800017D16078722814D1257005206570FDF77A
:10349000D3FE378001222570022148466570FDF772
:1034A000E0FF2820FEF769F8FA20FDF7C5FEC6F810
:1034B0000480022206490748FFF720F8BCE7000015
:1034C0003038024000200240001C02400018024038
:1034D00002000020B4000020000402400080010827
:1034E0000006101600061016000000000000000084
:1034F000010203040607080900000000010203049A
:10350000203500080000002020000000E8320008FC
:103510004035000820000020D8DB0100F832000808
:10352000F40100000080010800000000000000001D
:103530000100000010000000000000000024F40062
:04000005080001C925
:00000001FF
